{
  "_format": "hh-sol-artifact-1",
  "contractName": "WorldAppDashboard",
  "sourceName": "contracts/WorldAppDashboard.sol",
  "abi": [
    {
      "inputs": [
        {
          "internalType": "address",
          "name": "_wrcToken",
          "type": "address"
        }
      ],
      "stateMutability": "nonpayable",
      "type": "constructor"
    },
    {
      "inputs": [],
      "name": "BASIS",
      "outputs": [
        {
          "internalType": "uint256",
          "name": "",
          "type": "uint256"
        }
      ],
      "stateMutability": "view",
      "type": "function"
    },
    {
      "inputs": [],
      "name": "STAKING_APY",
      "outputs": [
        {
          "internalType": "uint256",
          "name": "",
          "type": "uint256"
        }
      ],
      "stateMutability": "view",
      "type": "function"
    },
    {
      "inputs": [],
      "name": "WORLD_REWARD_RATE",
      "outputs": [
        {
          "internalType": "uint256",
          "name": "",
          "type": "uint256"
        }
      ],
      "stateMutability": "view",
      "type": "function"
    },
    {
      "inputs": [
        {
          "internalType": "bytes32",
          "name": "worldId",
          "type": "bytes32"
        }
      ],
      "name": "claimStakingReward",
      "outputs": [],
      "stateMutability": "nonpayable",
      "type": "function"
    },
    {
      "inputs": [
        {
          "internalType": "bytes32",
          "name": "worldId",
          "type": "bytes32"
        }
      ],
      "name": "claimWorldReward",
      "outputs": [],
      "stateMutability": "nonpayable",
      "type": "function"
    },
    {
      "inputs": [
        {
          "internalType": "bytes32",
          "name": "worldId",
          "type": "bytes32"
        }
      ],
      "name": "compound",
      "outputs": [],
      "stateMutability": "nonpayable",
      "type": "function"
    },
    {
      "inputs": [
        {
          "internalType": "bytes32",
          "name": "worldId",
          "type": "bytes32"
        }
      ],
      "name": "pendingStakingReward",
      "outputs": [
        {
          "internalType": "uint256",
          "name": "",
          "type": "uint256"
        }
      ],
      "stateMutability": "view",
      "type": "function"
    },
    {
      "inputs": [
        {
          "internalType": "bytes32",
          "name": "worldId",
          "type": "bytes32"
        }
      ],
      "name": "pendingWorldReward",
      "outputs": [
        {
          "internalType": "uint256",
          "name": "",
          "type": "uint256"
        }
      ],
      "stateMutability": "view",
      "type": "function"
    },
    {
      "inputs": [
        {
          "internalType": "bytes32",
          "name": "worldId",
          "type": "bytes32"
        },
        {
          "internalType": "address",
          "name": "wallet",
          "type": "address"
        }
      ],
      "name": "setWithdrawWallet",
      "outputs": [],
      "stateMutability": "nonpayable",
      "type": "function"
    },
    {
      "inputs": [
        {
          "internalType": "bytes32",
          "name": "worldId",
          "type": "bytes32"
        },
        {
          "internalType": "uint256",
          "name": "amount",
          "type": "uint256"
        }
      ],
      "name": "stake",
      "outputs": [],
      "stateMutability": "nonpayable",
      "type": "function"
    },
    {
      "inputs": [
        {
          "internalType": "bytes32",
          "name": "",
          "type": "bytes32"
        }
      ],
      "name": "stakingUsers",
      "outputs": [
        {
          "internalType": "uint256",
          "name": "staked",
          "type": "uint256"
        },
        {
          "internalType": "uint256",
          "name": "lastUpdate",
          "type": "uint256"
        },
        {
          "internalType": "uint256",
          "name": "rewardDebt",
          "type": "uint256"
        }
      ],
      "stateMutability": "view",
      "type": "function"
    },
    {
      "inputs": [
        {
          "internalType": "bytes32",
          "name": "worldId",
          "type": "bytes32"
        }
      ],
      "name": "unstakeAll",
      "outputs": [],
      "stateMutability": "nonpayable",
      "type": "function"
    },
    {
      "inputs": [
        {
          "internalType": "bytes32",
          "name": "",
          "type": "bytes32"
        }
      ],
      "name": "withdrawWallet",
      "outputs": [
        {
          "internalType": "address",
          "name": "",
          "type": "address"
        }
      ],
      "stateMutability": "view",
      "type": "function"
    },
    {
      "inputs": [
        {
          "internalType": "bytes32",
          "name": "",
          "type": "bytes32"
        }
      ],
      "name": "worldUsers",
      "outputs": [
        {
          "internalType": "uint256",
          "name": "lastClaim",
          "type": "uint256"
        },
        {
          "internalType": "uint256",
          "name": "claimedTotal",
          "type": "uint256"
        }
      ],
      "stateMutability": "view",
      "type": "function"
    },
    {
      "inputs": [],
      "name": "wrcToken",
      "outputs": [
        {
          "internalType": "contract IERC20",
          "name": "",
          "type": "address"
        }
      ],
      "stateMutability": "view",
      "type": "function"
    }
  ],
  "bytecode": "0x60a06040523480156200001157600080fd5b5060405162001947380380620019478339818101604052810190620000379190620000dc565b8073ffffffffffffffffffffffffffffffffffffffff1660808173ffffffffffffffffffffffffffffffffffffffff1681525050506200010e565b600080fd5b600073ffffffffffffffffffffffffffffffffffffffff82169050919050565b6000620000a48262000077565b9050919050565b620000b68162000097565b8114620000c257600080fd5b50565b600081519050620000d681620000ab565b92915050565b600060208284031215620000f557620000f462000072565b5b60006200010584828501620000c5565b91505092915050565b608051611801620001466000396000818161043e01528181610552015281816106ba015281816108d80152610c0501526118016000f3fe608060405234801561001057600080fd5b50600436106100f55760003560e01c80638caa523011610097578063aec209bc11610066578063aec209bc14610273578063d6fd1c521461028f578063e6069663146102ad578063f0cfb828146102dd576100f5565b80638caa5230146101ef5780638dc3e5f31461020b5780638e33a39f14610227578063915a122d14610243576100f5565b8063528cfa98116100d3578063528cfa98146101525780635e1edb4314610170578063752115621461018c57806380bbc1b5146101bd576100f5565b806310f113d2146100fa5780631bfc5989146101185780634485688c14610134575b600080fd5b61010261030d565b60405161010f9190610f5f565b60405180910390f35b610132600480360381019061012d9190610fb5565b610317565b005b61013c610550565b6040516101499190611061565b60405180910390f35b61015a610574565b6040516101679190610f5f565b60405180910390f35b61018a60048036038101906101859190610fb5565b61057b565b005b6101a660048036038101906101a19190610fb5565b61079a565b6040516101b492919061107c565b60405180910390f35b6101d760048036038101906101d29190610fb5565b6107be565b6040516101e6939291906110a5565b60405180910390f35b61020960048036038101906102049190611108565b6107e8565b005b61022560048036038101906102209190611186565b6109e6565b005b610241600480360381019061023c9190610fb5565b610ade565b005b61025d60048036038101906102589190610fb5565b610d17565b60405161026a9190610f5f565b60405180910390f35b61028d60048036038101906102889190610fb5565b610d9c565b005b610297610e50565b6040516102a49190610f5f565b60405180910390f35b6102c760048036038101906102c29190610fb5565b610e57565b6040516102d49190610f5f565b60405180910390f35b6102f760048036038101906102f29190610fb5565b610ea9565b60405161030491906111d5565b60405180910390f35b65da475abf000081565b600073ffffffffffffffffffffffffffffffffffffffff166002600083815260200190815260200160002060009054906101000a900473ffffffffffffffffffffffffffffffffffffffff1673ffffffffffffffffffffffffffffffffffffffff16036103b9576040517f08c379a00000000000000000000000000000000000000000000000000000000081526004016103b09061124d565b60405180910390fd5b6103c281610edc565b60006001600083815260200190815260200160002060020154905060008111610420576040517f08c379a0000000000000000000000000000000000000000000000000000000008152600401610417906112b9565b60405180910390fd5b600060016000848152602001908152602001600020600201819055507f000000000000000000000000000000000000000000000000000000000000000073ffffffffffffffffffffffffffffffffffffffff1663a9059cbb6002600085815260200190815260200160002060009054906101000a900473ffffffffffffffffffffffffffffffffffffffff16836040518363ffffffff1660e01b81526004016104ca9291906112d9565b6020604051808303816000875af11580156104e9573d6000803e3d6000fd5b505050506040513d601f19601f8201168201806040525081019061050d919061133a565b61054c576040517f08c379a0000000000000000000000000000000000000000000000000000000008152600401610543906113b3565b60405180910390fd5b5050565b7f000000000000000000000000000000000000000000000000000000000000000081565b620f424081565b60006002600083815260200190815260200160002060009054906101000a900473ffffffffffffffffffffffffffffffffffffffff169050600073ffffffffffffffffffffffffffffffffffffffff168173ffffffffffffffffffffffffffffffffffffffff1603610622576040517f08c379a00000000000000000000000000000000000000000000000000000000081526004016106199061141f565b60405180910390fd5b600061062d83610e57565b905060008111610672576040517f08c379a0000000000000000000000000000000000000000000000000000000008152600401610669906112b9565b60405180910390fd5b806000808581526020019081526020016000206001016000828254610697919061146e565b9250508190555042600080858152602001908152602001600020600001819055507f000000000000000000000000000000000000000000000000000000000000000073ffffffffffffffffffffffffffffffffffffffff1663a9059cbb83836040518363ffffffff1660e01b81526004016107139291906112d9565b6020604051808303816000875af1158015610732573d6000803e3d6000fd5b505050506040513d601f19601f82011682018060405250810190610756919061133a565b610795576040517f08c379a000000000000000000000000000000000000000000000000000000000815260040161078c906113b3565b60405180910390fd5b505050565b60006020528060005260406000206000915090508060000154908060010154905082565b60016020528060005260406000206000915090508060000154908060010154908060020154905083565b6000811161082b576040517f08c379a0000000000000000000000000000000000000000000000000000000008152600401610822906114ee565b60405180910390fd5b600073ffffffffffffffffffffffffffffffffffffffff166002600084815260200190815260200160002060009054906101000a900473ffffffffffffffffffffffffffffffffffffffff1673ffffffffffffffffffffffffffffffffffffffff16036108cd576040517f08c379a00000000000000000000000000000000000000000000000000000000081526004016108c49061124d565b60405180910390fd5b6108d682610edc565b7f000000000000000000000000000000000000000000000000000000000000000073ffffffffffffffffffffffffffffffffffffffff166323b872dd3330846040518463ffffffff1660e01b81526004016109339392919061150e565b6020604051808303816000875af1158015610952573d6000803e3d6000fd5b505050506040513d601f19601f82011682018060405250810190610976919061133a565b6109b5576040517f08c379a00000000000000000000000000000000000000000000000000000000081526004016109ac90611591565b60405180910390fd5b806001600084815260200190815260200160002060000160008282546109db919061146e565b925050819055505050565b600073ffffffffffffffffffffffffffffffffffffffff166002600084815260200190815260200160002060009054906101000a900473ffffffffffffffffffffffffffffffffffffffff1673ffffffffffffffffffffffffffffffffffffffff1614610a88576040517f08c379a0000000000000000000000000000000000000000000000000000000008152600401610a7f906115fd565b60405180910390fd5b806002600084815260200190815260200160002060006101000a81548173ffffffffffffffffffffffffffffffffffffffff021916908373ffffffffffffffffffffffffffffffffffffffff1602179055505050565b600073ffffffffffffffffffffffffffffffffffffffff166002600083815260200190815260200160002060009054906101000a900473ffffffffffffffffffffffffffffffffffffffff1673ffffffffffffffffffffffffffffffffffffffff1603610b80576040517f08c379a0000000000000000000000000000000000000000000000000000000008152600401610b779061124d565b60405180910390fd5b610b8981610edc565b60006001600083815260200190815260200160002060000154905060008111610be7576040517f08c379a0000000000000000000000000000000000000000000000000000000008152600401610bde90611669565b60405180910390fd5b600060016000848152602001908152602001600020600001819055507f000000000000000000000000000000000000000000000000000000000000000073ffffffffffffffffffffffffffffffffffffffff1663a9059cbb6002600085815260200190815260200160002060009054906101000a900473ffffffffffffffffffffffffffffffffffffffff16836040518363ffffffff1660e01b8152600401610c919291906112d9565b6020604051808303816000875af1158015610cb0573d6000803e3d6000fd5b505050506040513d601f19601f82011682018060405250810190610cd4919061133a565b610d13576040517f08c379a0000000000000000000000000000000000000000000000000000000008152600401610d0a906113b3565b60405180910390fd5b5050565b6000806001600084815260200190815260200160002090506000816001015442610d419190611689565b905060006301e13380620f424083620aae608660000154610d6291906116bd565b610d6c91906116bd565b610d76919061172e565b610d80919061172e565b9050808360020154610d92919061146e565b9350505050919050565b610da581610edc565b60006001600083815260200190815260200160002060020154905060008111610e03576040517f08c379a0000000000000000000000000000000000000000000000000000000008152600401610dfa906117ab565b60405180910390fd5b6000600160008481526020019081526020016000206002018190555080600160008481526020019081526020016000206000016000828254610e45919061146e565b925050819055505050565b620aae6081565b60008060008084815260200190815260200160002060000154905060008103610e7e574290505b600065da475abf00008242610e939190611689565b610e9d91906116bd565b90508092505050919050565b60026020528060005260406000206000915054906101000a900473ffffffffffffffffffffffffffffffffffffffff1681565b6000600160008381526020019081526020016000209050600081600001541115610f395760008160020154610f1084610d17565b610f1a9190611689565b905080826002016000828254610f30919061146e565b92505081905550505b4281600101819055505050565b6000819050919050565b610f5981610f46565b82525050565b6000602082019050610f746000830184610f50565b92915050565b600080fd5b6000819050919050565b610f9281610f7f565b8114610f9d57600080fd5b50565b600081359050610faf81610f89565b92915050565b600060208284031215610fcb57610fca610f7a565b5b6000610fd984828501610fa0565b91505092915050565b600073ffffffffffffffffffffffffffffffffffffffff82169050919050565b6000819050919050565b600061102761102261101d84610fe2565b611002565b610fe2565b9050919050565b60006110398261100c565b9050919050565b600061104b8261102e565b9050919050565b61105b81611040565b82525050565b60006020820190506110766000830184611052565b92915050565b60006040820190506110916000830185610f50565b61109e6020830184610f50565b9392505050565b60006060820190506110ba6000830186610f50565b6110c76020830185610f50565b6110d46040830184610f50565b949350505050565b6110e581610f46565b81146110f057600080fd5b50565b600081359050611102816110dc565b92915050565b6000806040838503121561111f5761111e610f7a565b5b600061112d85828601610fa0565b925050602061113e858286016110f3565b9150509250929050565b600061115382610fe2565b9050919050565b61116381611148565b811461116e57600080fd5b50565b6000813590506111808161115a565b92915050565b6000806040838503121561119d5761119c610f7a565b5b60006111ab85828601610fa0565b92505060206111bc85828601611171565b9150509250929050565b6111cf81611148565b82525050565b60006020820190506111ea60008301846111c6565b92915050565b600082825260208201905092915050565b7f7365742077697468647261772077616c6c657400000000000000000000000000600082015250565b60006112376013836111f0565b915061124282611201565b602082019050919050565b600060208201905081810360008301526112668161122a565b9050919050565b7f6e6f7468696e6720746f20636c61696d00000000000000000000000000000000600082015250565b60006112a36010836111f0565b91506112ae8261126d565b602082019050919050565b600060208201905081810360008301526112d281611296565b9050919050565b60006040820190506112ee60008301856111c6565b6112fb6020830184610f50565b9392505050565b60008115159050919050565b61131781611302565b811461132257600080fd5b50565b6000815190506113348161130e565b92915050565b6000602082840312156113505761134f610f7a565b5b600061135e84828501611325565b91505092915050565b7f7472616e73666572206661696c65640000000000000000000000000000000000600082015250565b600061139d600f836111f0565b91506113a882611367565b602082019050919050565b600060208201905081810360008301526113cc81611390565b9050919050565b7f7365742077697468647261772077616c6c657420666972737400000000000000600082015250565b60006114096019836111f0565b9150611414826113d3565b602082019050919050565b60006020820190508181036000830152611438816113fc565b9050919050565b7f4e487b7100000000000000000000000000000000000000000000000000000000600052601160045260246000fd5b600061147982610f46565b915061148483610f46565b925082820190508082111561149c5761149b61143f565b5b92915050565b7f7a65726f207374616b6500000000000000000000000000000000000000000000600082015250565b60006114d8600a836111f0565b91506114e3826114a2565b602082019050919050565b60006020820190508181036000830152611507816114cb565b9050919050565b600060608201905061152360008301866111c6565b61153060208301856111c6565b61153d6040830184610f50565b949350505050565b7f7472616e7366657220696e206661696c65640000000000000000000000000000600082015250565b600061157b6012836111f0565b915061158682611545565b602082019050919050565b600060208201905081810360008301526115aa8161156e565b9050919050565b7f616c726561647920736574000000000000000000000000000000000000000000600082015250565b60006115e7600b836111f0565b91506115f2826115b1565b602082019050919050565b60006020820190508181036000830152611616816115da565b9050919050565b7f6e6f7468696e6720746f20756e7374616b650000000000000000000000000000600082015250565b60006116536012836111f0565b915061165e8261161d565b602082019050919050565b6000602082019050818103600083015261168281611646565b9050919050565b600061169482610f46565b915061169f83610f46565b92508282039050818111156116b7576116b661143f565b5b92915050565b60006116c882610f46565b91506116d383610f46565b92508282026116e181610f46565b915082820484148315176116f8576116f761143f565b5b5092915050565b7f4e487b7100000000000000000000000000000000000000000000000000000000600052601260045260246000fd5b600061173982610f46565b915061174483610f46565b925082611754576117536116ff565b5b828204905092915050565b7f6e6f7468696e6720746f20636f6d706f756e6400000000000000000000000000600082015250565b60006117956013836111f0565b91506117a08261175f565b602082019050919050565b600060208201905081810360008301526117c481611788565b905091905056fea26469706673582212204725b968249d545ca48e1a9287f57a82e5204681b1bcf35f3d996fc518f6cf8964736f6c63430008140033",
  "linkReferences": {},
  "deployedLinkReferences": {}
}